{
  "address": "0x9fE46736679d2D9a65F0992F2272dE9f3c7fa6e0",
  "abi": [
    {
      "anonymous": false,
      "inputs": [
        {
          "indexed": true,
          "internalType": "address",
          "name": "owner",
          "type": "address"
        },
        {
          "indexed": true,
          "internalType": "address",
          "name": "spender",
          "type": "address"
        },
        {
          "indexed": false,
          "internalType": "uint256",
          "name": "value",
          "type": "uint256"
        }
      ],
      "name": "Approval",
      "type": "event"
    },
    {
      "anonymous": false,
      "inputs": [
        {
          "indexed": true,
          "internalType": "uint256",
          "name": "_rate",
          "type": "uint256"
        }
      ],
      "name": "LogRateChanged",
      "type": "event"
    },
    {
      "anonymous": false,
      "inputs": [
        {
          "indexed": true,
          "internalType": "address",
          "name": "previousOwner",
          "type": "address"
        },
        {
          "indexed": true,
          "internalType": "address",
          "name": "newOwner",
          "type": "address"
        }
      ],
      "name": "OwnershipTransferred",
      "type": "event"
    },
    {
      "anonymous": false,
      "inputs": [
        {
          "indexed": true,
          "internalType": "address",
          "name": "from",
          "type": "address"
        },
        {
          "indexed": true,
          "internalType": "address",
          "name": "to",
          "type": "address"
        },
        {
          "indexed": false,
          "internalType": "uint256",
          "name": "value",
          "type": "uint256"
        }
      ],
      "name": "Transfer",
      "type": "event"
    },
    {
      "inputs": [],
      "name": "_rateScale",
      "outputs": [
        {
          "internalType": "uint256",
          "name": "",
          "type": "uint256"
        }
      ],
      "stateMutability": "view",
      "type": "function"
    },
    {
      "inputs": [
        {
          "internalType": "address",
          "name": "owner",
          "type": "address"
        },
        {
          "internalType": "address",
          "name": "spender",
          "type": "address"
        }
      ],
      "name": "allowance",
      "outputs": [
        {
          "internalType": "uint256",
          "name": "",
          "type": "uint256"
        }
      ],
      "stateMutability": "view",
      "type": "function"
    },
    {
      "inputs": [
        {
          "internalType": "address",
          "name": "spender",
          "type": "address"
        },
        {
          "internalType": "uint256",
          "name": "amount",
          "type": "uint256"
        }
      ],
      "name": "approve",
      "outputs": [
        {
          "internalType": "bool",
          "name": "",
          "type": "bool"
        }
      ],
      "stateMutability": "nonpayable",
      "type": "function"
    },
    {
      "inputs": [
        {
          "internalType": "address",
          "name": "account",
          "type": "address"
        }
      ],
      "name": "balanceOf",
      "outputs": [
        {
          "internalType": "uint256",
          "name": "",
          "type": "uint256"
        }
      ],
      "stateMutability": "view",
      "type": "function"
    },
    {
      "inputs": [
        {
          "internalType": "address",
          "name": "_account",
          "type": "address"
        }
      ],
      "name": "balanceOfUnderlying",
      "outputs": [
        {
          "internalType": "uint256",
          "name": "",
          "type": "uint256"
        }
      ],
      "stateMutability": "view",
      "type": "function"
    },
    {
      "inputs": [
        {
          "internalType": "address",
          "name": "_from",
          "type": "address"
        },
        {
          "internalType": "uint256",
          "name": "_amount",
          "type": "uint256"
        }
      ],
      "name": "burn",
      "outputs": [],
      "stateMutability": "nonpayable",
      "type": "function"
    },
    {
      "inputs": [],
      "name": "chain",
      "outputs": [
        {
          "internalType": "uint256",
          "name": "",
          "type": "uint256"
        }
      ],
      "stateMutability": "view",
      "type": "function"
    },
    {
      "inputs": [],
      "name": "chainId",
      "outputs": [
        {
          "internalType": "uint256",
          "name": "",
          "type": "uint256"
        }
      ],
      "stateMutability": "view",
      "type": "function"
    },
    {
      "inputs": [],
      "name": "decimals",
      "outputs": [
        {
          "internalType": "uint8",
          "name": "",
          "type": "uint8"
        }
      ],
      "stateMutability": "view",
      "type": "function"
    },
    {
      "inputs": [
        {
          "internalType": "address",
          "name": "spender",
          "type": "address"
        },
        {
          "internalType": "uint256",
          "name": "subtractedValue",
          "type": "uint256"
        }
      ],
      "name": "decreaseAllowance",
      "outputs": [
        {
          "internalType": "bool",
          "name": "",
          "type": "bool"
        }
      ],
      "stateMutability": "nonpayable",
      "type": "function"
    },
    {
      "inputs": [],
      "name": "exchangeRateCurrent",
      "outputs": [
        {
          "internalType": "uint256",
          "name": "",
          "type": "uint256"
        }
      ],
      "stateMutability": "view",
      "type": "function"
    },
    {
      "inputs": [
        {
          "internalType": "uint256",
          "name": "_amountUnderlying",
          "type": "uint256"
        }
      ],
      "name": "fromUnderlying",
      "outputs": [
        {
          "internalType": "uint256",
          "name": "",
          "type": "uint256"
        }
      ],
      "stateMutability": "view",
      "type": "function"
    },
    {
      "inputs": [],
      "name": "getTokenValut",
      "outputs": [
        {
          "internalType": "contract AstralAssetVault",
          "name": "",
          "type": "address"
        }
      ],
      "stateMutability": "view",
      "type": "function"
    },
    {
      "inputs": [
        {
          "internalType": "address",
          "name": "spender",
          "type": "address"
        },
        {
          "internalType": "uint256",
          "name": "addedValue",
          "type": "uint256"
        }
      ],
      "name": "increaseAllowance",
      "outputs": [
        {
          "internalType": "bool",
          "name": "",
          "type": "bool"
        }
      ],
      "stateMutability": "nonpayable",
      "type": "function"
    },
    {
      "inputs": [
        {
          "internalType": "string",
          "name": "_name",
          "type": "string"
        },
        {
          "internalType": "string",
          "name": "_symbol",
          "type": "string"
        },
        {
          "internalType": "uint8",
          "name": "_decimals",
          "type": "uint8"
        },
        {
          "internalType": "uint256",
          "name": "_chainId",
          "type": "uint256"
        },
        {
          "internalType": "uint256",
          "name": "rate",
          "type": "uint256"
        },
        {
          "internalType": "address",
          "name": "_parentAsset",
          "type": "address"
        }
      ],
      "name": "initialize",
      "outputs": [],
      "stateMutability": "nonpayable",
      "type": "function"
    },
    {
      "inputs": [
        {
          "internalType": "address",
          "name": "_to",
          "type": "address"
        },
        {
          "internalType": "uint256",
          "name": "_amount",
          "type": "uint256"
        }
      ],
      "name": "mint",
      "outputs": [],
      "stateMutability": "nonpayable",
      "type": "function"
    },
    {
      "inputs": [],
      "name": "name",
      "outputs": [
        {
          "internalType": "string",
          "name": "",
          "type": "string"
        }
      ],
      "stateMutability": "view",
      "type": "function"
    },
    {
      "inputs": [],
      "name": "owner",
      "outputs": [
        {
          "internalType": "address",
          "name": "",
          "type": "address"
        }
      ],
      "stateMutability": "view",
      "type": "function"
    },
    {
      "inputs": [],
      "name": "renounceOwnership",
      "outputs": [],
      "stateMutability": "nonpayable",
      "type": "function"
    },
    {
      "inputs": [
        {
          "internalType": "uint256",
          "name": "_nextRate",
          "type": "uint256"
        }
      ],
      "name": "setExchangeRate",
      "outputs": [],
      "stateMutability": "nonpayable",
      "type": "function"
    },
    {
      "inputs": [],
      "name": "symbol",
      "outputs": [
        {
          "internalType": "string",
          "name": "",
          "type": "string"
        }
      ],
      "stateMutability": "view",
      "type": "function"
    },
    {
      "inputs": [
        {
          "internalType": "uint256",
          "name": "_amount",
          "type": "uint256"
        }
      ],
      "name": "toUnderlying",
      "outputs": [
        {
          "internalType": "uint256",
          "name": "",
          "type": "uint256"
        }
      ],
      "stateMutability": "view",
      "type": "function"
    },
    {
      "inputs": [],
      "name": "totalSupply",
      "outputs": [
        {
          "internalType": "uint256",
          "name": "",
          "type": "uint256"
        }
      ],
      "stateMutability": "view",
      "type": "function"
    },
    {
      "inputs": [
        {
          "internalType": "address",
          "name": "recipient",
          "type": "address"
        },
        {
          "internalType": "uint256",
          "name": "amount",
          "type": "uint256"
        }
      ],
      "name": "transfer",
      "outputs": [
        {
          "internalType": "bool",
          "name": "",
          "type": "bool"
        }
      ],
      "stateMutability": "nonpayable",
      "type": "function"
    },
    {
      "inputs": [
        {
          "internalType": "address",
          "name": "sender",
          "type": "address"
        },
        {
          "internalType": "address",
          "name": "recipient",
          "type": "address"
        },
        {
          "internalType": "uint256",
          "name": "amount",
          "type": "uint256"
        }
      ],
      "name": "transferFrom",
      "outputs": [
        {
          "internalType": "bool",
          "name": "",
          "type": "bool"
        }
      ],
      "stateMutability": "nonpayable",
      "type": "function"
    },
    {
      "inputs": [
        {
          "internalType": "address",
          "name": "newOwner",
          "type": "address"
        }
      ],
      "name": "transferOwnership",
      "outputs": [],
      "stateMutability": "nonpayable",
      "type": "function"
    }
  ],
  "transactionHash": "0x20d7f51c8e818c9c92d67bab4094555ee43f7a9b7eecbc20bfd6dd771231aa57",
  "args": [],
  "numDeployments": 1,
  "solcInputHash": "84a8c321f985cb32eeaefadf2908e0d1",
  "bytecode": "0x608060405234801561001057600080fd5b5061174e806100206000396000f3fe608060405234801561001057600080fd5b506004361061018e5760003560e01c80638da5cb5b116100de578063a9059cbb11610097578063db068e0e11610071578063db068e0e1461033f578063dd62ed3e14610352578063eb438fc21461038b578063f2fde38b1461039e57600080fd5b8063a9059cbb1461031c578063bd6d894d1461032f578063c763e5a11461033757600080fd5b80638da5cb5b146102c157806395d89b41146102d25780639a8a0592146102da5780639dc29fac146102e3578063a173b2f6146102f6578063a457c2d71461030957600080fd5b80632cd77a5a1161014b5780633af9e669116101255780633af9e6691461026a57806340c10f191461027d57806370a0823114610290578063715018a6146102b957600080fd5b80632cd77a5a1461022d578063313ce56714610242578063395093511461025757600080fd5b806306fdde0314610193578063095ea7b3146101b157806318160ddd146101d45780631e7c3dd3146101e657806323b872dd1461020b57806325e27ed81461021e575b600080fd5b61019b6103b1565b6040516101a89190611354565b60405180910390f35b6101c46101bf3660046113c5565b610443565b60405190151581526020016101a8565b6067545b6040519081526020016101a8565b609b546001600160a01b03165b6040516001600160a01b0390911681526020016101a8565b6101c46102193660046113ef565b610459565b6101d8670de0b6b3a764000081565b61024061023b3660046114ce565b6104e1565b005b60975460405160ff90911681526020016101a8565b6101c46102653660046113c5565b610605565b6101d861027836600461156d565b610641565b61024061028b3660046113c5565b610669565b6101d861029e36600461156d565b6001600160a01b031660009081526065602052604090205490565b6102406106a1565b6033546001600160a01b03166101f3565b61019b6106d7565b6101d860995481565b6102406102f13660046113c5565b6106e6565b6101d8610304366004611588565b61071a565b6101c46103173660046113c5565b61073c565b6101c461032a3660046113c5565b6107d5565b6101d8610853565b6099546101d8565b61024061034d366004611588565b6108c4565b6101d86103603660046115a1565b6001600160a01b03918216600090815260666020908152604080832093909416825291909152205490565b6101d8610399366004611588565b6108fa565b6102406103ac36600461156d565b61091d565b6060606880546103c0906115d4565b80601f01602080910402602001604051908101604052809291908181526020018280546103ec906115d4565b80156104395780601f1061040e57610100808354040283529160200191610439565b820191906000526020600020905b81548152906001019060200180831161041c57829003601f168201915b5050505050905090565b60006104503384846109b5565b50600192915050565b60006001600160a01b0383163014156104ce5760405162461bcd60e51b815260206004820152602c60248201527f41737472616c45524332303a2063616e2774207472616e7366657220746f207460448201526b6f6b656e206164647265737360a01b60648201526084015b60405180910390fd5b6104d9848484610ad9565b949350505050565b600054610100900460ff16806104fa575060005460ff16155b6105165760405162461bcd60e51b81526004016104c59061160f565b600054610100900460ff16158015610538576000805461ffff19166101011790555b610540610b83565b61054a8787610bfe565b6000831161059a5760405162461bcd60e51b815260206004820152601b60248201527f72617465206d7573742062652067726561746572207468616e2030000000000060448201526064016104c5565b6099849055609a80546001600160a01b0319166001600160a01b038416179055609883905560ff8516156105dc576097805460ff191660ff87161790556105ea565b6097805460ff191660121790555b80156105fc576000805461ff00191690555b50505050505050565b3360008181526066602090815260408083206001600160a01b0387168452909152812054909161045091859061063c908690611673565b6109b5565b6001600160a01b038116600090815260656020526040812054610663906108fa565b92915050565b6033546001600160a01b031633146106935760405162461bcd60e51b81526004016104c59061168b565b61069d8282610c7e565b5050565b6033546001600160a01b031633146106cb5760405162461bcd60e51b81526004016104c59061168b565b6106d56000610d5d565b565b6060606980546103c0906115d4565b6033546001600160a01b031633146107105760405162461bcd60e51b81526004016104c59061168b565b61069d8282610daf565b6098546000906106639061073684670de0b6b3a7640000610efd565b90610f09565b3360009081526066602090815260408083206001600160a01b0386168452909152812054828110156107be5760405162461bcd60e51b815260206004820152602560248201527f45524332303a2064656372656173656420616c6c6f77616e63652062656c6f77604482015264207a65726f60d81b60648201526084016104c5565b6107cb33858584036109b5565b5060019392505050565b60006001600160a01b0383163014156108425760405162461bcd60e51b815260206004820152602960248201527f52656e45524332303a2063616e2774207472616e7366657220746f20746f6b656044820152686e206164647265737360b81b60648201526084016104c5565b61084c8383610f15565b9392505050565b6000609854600014156108bd5760405162461bcd60e51b815260206004820152602c60248201527f455243323057697468526174653a207261746520686173206e6f74206265656e60448201526b081a5b9a5d1a585b1a5e995960a21b60648201526084016104c5565b5060985490565b6033546001600160a01b031633146108ee5760405162461bcd60e51b81526004016104c59061168b565b6108f781610f22565b50565b6000610663670de0b6b3a764000061073660985485610efd90919063ffffffff16565b6033546001600160a01b031633146109475760405162461bcd60e51b81526004016104c59061168b565b6001600160a01b0381166109ac5760405162461bcd60e51b815260206004820152602660248201527f4f776e61626c653a206e6577206f776e657220697320746865207a65726f206160448201526564647265737360d01b60648201526084016104c5565b6108f781610d5d565b6001600160a01b038316610a175760405162461bcd60e51b8152602060048201526024808201527f45524332303a20617070726f76652066726f6d20746865207a65726f206164646044820152637265737360e01b60648201526084016104c5565b6001600160a01b038216610a785760405162461bcd60e51b815260206004820152602260248201527f45524332303a20617070726f766520746f20746865207a65726f206164647265604482015261737360f01b60648201526084016104c5565b6001600160a01b0383811660008181526066602090815260408083209487168084529482529182902085905590518481527f8c5be1e5ebec7d5bd14f71427d1e84f3dd0314c0f7b2291e5b200ac8c7c3b925910160405180910390a3505050565b6000610ae6848484610f8d565b6001600160a01b038416600090815260666020908152604080832033845290915290205482811015610b6b5760405162461bcd60e51b815260206004820152602860248201527f45524332303a207472616e7366657220616d6f756e74206578636565647320616044820152676c6c6f77616e636560c01b60648201526084016104c5565b610b7885338584036109b5565b506001949350505050565b600054610100900460ff1680610b9c575060005460ff16155b610bb85760405162461bcd60e51b81526004016104c59061160f565b600054610100900460ff16158015610bda576000805461ffff19166101011790555b610be261115c565b610bea6111c6565b80156108f7576000805461ff001916905550565b600054610100900460ff1680610c17575060005460ff16155b610c335760405162461bcd60e51b81526004016104c59061160f565b600054610100900460ff16158015610c55576000805461ffff19166101011790555b610c5d61115c565b610c678383611226565b8015610c79576000805461ff00191690555b505050565b6001600160a01b038216610cd45760405162461bcd60e51b815260206004820152601f60248201527f45524332303a206d696e7420746f20746865207a65726f20616464726573730060448201526064016104c5565b8060676000828254610ce69190611673565b90915550506001600160a01b03821660009081526065602052604081208054839290610d13908490611673565b90915550506040518181526001600160a01b038316906000907fddf252ad1be2c89b69c2b068fc378daa952ba7f163c4a11628f55a4df523b3ef9060200160405180910390a35050565b603380546001600160a01b038381166001600160a01b0319831681179093556040519116919082907f8be0079c531659141344cd1fd0a4f28419497f9722a3daafe3b4186f6b6457e090600090a35050565b6001600160a01b038216610e0f5760405162461bcd60e51b815260206004820152602160248201527f45524332303a206275726e2066726f6d20746865207a65726f206164647265736044820152607360f81b60648201526084016104c5565b6001600160a01b03821660009081526065602052604090205481811015610e835760405162461bcd60e51b815260206004820152602260248201527f45524332303a206275726e20616d6f756e7420657863656564732062616c616e604482015261636560f01b60648201526084016104c5565b6001600160a01b0383166000908152606560205260408120838303905560678054849290610eb29084906116c0565b90915550506040518281526000906001600160a01b038516907fddf252ad1be2c89b69c2b068fc378daa952ba7f163c4a11628f55a4df523b3ef9060200160405180910390a3505050565b600061084c82846116d7565b600061084c82846116f6565b6000610450338484610f8d565b60008111610f885760405162461bcd60e51b815260206004820152602d60248201527f455243323057697468526174653a2072617465206d757374206265206772656160448201526c746572207468616e207a65726f60981b60648201526084016104c5565b609855565b6001600160a01b038316610ff15760405162461bcd60e51b815260206004820152602560248201527f45524332303a207472616e736665722066726f6d20746865207a65726f206164604482015264647265737360d81b60648201526084016104c5565b6001600160a01b0382166110535760405162461bcd60e51b815260206004820152602360248201527f45524332303a207472616e7366657220746f20746865207a65726f206164647260448201526265737360e81b60648201526084016104c5565b6001600160a01b038316600090815260656020526040902054818110156110cb5760405162461bcd60e51b815260206004820152602660248201527f45524332303a207472616e7366657220616d6f756e7420657863656564732062604482015265616c616e636560d01b60648201526084016104c5565b6001600160a01b03808516600090815260656020526040808220858503905591851681529081208054849290611102908490611673565b92505081905550826001600160a01b0316846001600160a01b03167fddf252ad1be2c89b69c2b068fc378daa952ba7f163c4a11628f55a4df523b3ef8460405161114e91815260200190565b60405180910390a350505050565b600054610100900460ff1680611175575060005460ff16155b6111915760405162461bcd60e51b81526004016104c59061160f565b600054610100900460ff16158015610bea576000805461ffff191661010117905580156108f7576000805461ff001916905550565b600054610100900460ff16806111df575060005460ff16155b6111fb5760405162461bcd60e51b81526004016104c59061160f565b600054610100900460ff1615801561121d576000805461ffff19166101011790555b610bea33610d5d565b600054610100900460ff168061123f575060005460ff16155b61125b5760405162461bcd60e51b81526004016104c59061160f565b600054610100900460ff1615801561127d576000805461ffff19166101011790555b82516112909060689060208601906112bb565b5081516112a49060699060208501906112bb565b508015610c79576000805461ff0019169055505050565b8280546112c7906115d4565b90600052602060002090601f0160209004810192826112e9576000855561132f565b82601f1061130257805160ff191683800117855561132f565b8280016001018555821561132f579182015b8281111561132f578251825591602001919060010190611314565b5061133b92915061133f565b5090565b5b8082111561133b5760008155600101611340565b600060208083528351808285015260005b8181101561138157858101830151858201604001528201611365565b81811115611393576000604083870101525b50601f01601f1916929092016040019392505050565b80356001600160a01b03811681146113c057600080fd5b919050565b600080604083850312156113d857600080fd5b6113e1836113a9565b946020939093013593505050565b60008060006060848603121561140457600080fd5b61140d846113a9565b925061141b602085016113a9565b9150604084013590509250925092565b634e487b7160e01b600052604160045260246000fd5b600082601f83011261145257600080fd5b813567ffffffffffffffff8082111561146d5761146d61142b565b604051601f8301601f19908116603f011681019082821181831017156114955761149561142b565b816040528381528660208588010111156114ae57600080fd5b836020870160208301376000602085830101528094505050505092915050565b60008060008060008060c087890312156114e757600080fd5b863567ffffffffffffffff808211156114ff57600080fd5b61150b8a838b01611441565b9750602089013591508082111561152157600080fd5b5061152e89828a01611441565b955050604087013560ff8116811461154557600080fd5b9350606087013592506080870135915061156160a088016113a9565b90509295509295509295565b60006020828403121561157f57600080fd5b61084c826113a9565b60006020828403121561159a57600080fd5b5035919050565b600080604083850312156115b457600080fd5b6115bd836113a9565b91506115cb602084016113a9565b90509250929050565b600181811c908216806115e857607f821691505b6020821081141561160957634e487b7160e01b600052602260045260246000fd5b50919050565b6020808252602e908201527f496e697469616c697a61626c653a20636f6e747261637420697320616c72656160408201526d191e481a5b9a5d1a585b1a5e995960921b606082015260800190565b634e487b7160e01b600052601160045260246000fd5b600082198211156116865761168661165d565b500190565b6020808252818101527f4f776e61626c653a2063616c6c6572206973206e6f7420746865206f776e6572604082015260600190565b6000828210156116d2576116d261165d565b500390565b60008160001904831182151516156116f1576116f161165d565b500290565b60008261171357634e487b7160e01b600052601260045260246000fd5b50049056fea2646970667358221220401820e9db3a010b7130bb5bfe3a3038be34c9f1fb9090e92d80002c3352112864736f6c63430008090033",
  "devdoc": {
    "kind": "dev",
    "methods": {
      "allowance(address,address)": {
        "details": "See {IERC20-allowance}."
      },
      "approve(address,uint256)": {
        "details": "See {IERC20-approve}. Requirements: - `spender` cannot be the zero address."
      },
      "balanceOf(address)": {
        "details": "See {IERC20-balanceOf}."
      },
      "decimals()": {
        "details": "Returns the number of decimals used to get its user representation. For example, if `decimals` equals `2`, a balance of `505` tokens should be displayed to a user as `5.05` (`505 / 10 ** 2`). Tokens usually opt for a value of 18, imitating the relationship between Ether and Wei. This is the value {ERC20} uses, unless this function is overridden; NOTE: This information is only used for _display_ purposes: it in no way affects any of the arithmetic of the contract, including {IERC20-balanceOf} and {IERC20-transfer}."
      },
      "decreaseAllowance(address,uint256)": {
        "details": "Atomically decreases the allowance granted to `spender` by the caller. This is an alternative to {approve} that can be used as a mitigation for problems described in {IERC20-approve}. Emits an {Approval} event indicating the updated allowance. Requirements: - `spender` cannot be the zero address. - `spender` must have allowance for the caller of at least `subtractedValue`."
      },
      "increaseAllowance(address,uint256)": {
        "details": "Atomically increases the allowance granted to `spender` by the caller. This is an alternative to {approve} that can be used as a mitigation for problems described in {IERC20-approve}. Emits an {Approval} event indicating the updated allowance. Requirements: - `spender` cannot be the zero address."
      },
      "name()": {
        "details": "Returns the name of the token."
      },
      "owner()": {
        "details": "Returns the address of the current owner."
      },
      "renounceOwnership()": {
        "details": "Leaves the contract without owner. It will not be possible to call `onlyOwner` functions anymore. Can only be called by the current owner. NOTE: Renouncing ownership will leave the contract without an owner, thereby removing any functionality that is only available to the owner."
      },
      "symbol()": {
        "details": "Returns the symbol of the token, usually a shorter version of the name."
      },
      "totalSupply()": {
        "details": "See {IERC20-totalSupply}."
      },
      "transfer(address,uint256)": {
        "details": "See {IERC20-transfer}. Requirements: - `recipient` cannot be the zero address. - the caller must have a balance of at least `amount`."
      },
      "transferFrom(address,address,uint256)": {
        "details": "See {IERC20-transferFrom}. Emits an {Approval} event indicating the updated allowance. This is not required by the EIP. See the note at the beginning of {ERC20}. Requirements: - `sender` and `recipient` cannot be the zero address. - `sender` must have a balance of at least `amount`. - the caller must have allowance for ``sender``'s tokens of at least `amount`."
      },
      "transferOwnership(address)": {
        "details": "Transfers ownership of the contract to a new account (`newOwner`). Can only be called by the current owner."
      }
    },
    "version": 1
  },
  "userdoc": {
    "kind": "user",
    "methods": {
      "burn(address,uint256)": {
        "notice": "burn can only be called by the tokens' associated Gateway contract. See Gateway's burn functions instead."
      },
      "mint(address,uint256)": {
        "notice": "mint can only be called by the tokens' associated Gateway contract. See Gateway's mint function instead."
      }
    },
    "notice": "AstralRC20 represents a digital asset that has been bridged on to the Ethereum ledger. It exposes mint and burn functions that can only be called by it's associated Gateway contract.",
    "version": 1
  },
  "storageLayout": {
    "storage": [
      {
        "astId": 130,
        "contract": "contracts/AstralABridge/AstralERC20Asset/AstralERC20.sol:AstralERC20Logic",
        "label": "_initialized",
        "offset": 0,
        "slot": "0",
        "type": "t_bool"
      },
      {
        "astId": 133,
        "contract": "contracts/AstralABridge/AstralERC20Asset/AstralERC20.sol:AstralERC20Logic",
        "label": "_initializing",
        "offset": 1,
        "slot": "0",
        "type": "t_bool"
      },
      {
        "astId": 889,
        "contract": "contracts/AstralABridge/AstralERC20Asset/AstralERC20.sol:AstralERC20Logic",
        "label": "__gap",
        "offset": 0,
        "slot": "1",
        "type": "t_array(t_uint256)50_storage"
      },
      {
        "astId": 10,
        "contract": "contracts/AstralABridge/AstralERC20Asset/AstralERC20.sol:AstralERC20Logic",
        "label": "_owner",
        "offset": 0,
        "slot": "51",
        "type": "t_address"
      },
      {
        "astId": 123,
        "contract": "contracts/AstralABridge/AstralERC20Asset/AstralERC20.sol:AstralERC20Logic",
        "label": "__gap",
        "offset": 0,
        "slot": "52",
        "type": "t_array(t_uint256)49_storage"
      },
      {
        "astId": 189,
        "contract": "contracts/AstralABridge/AstralERC20Asset/AstralERC20.sol:AstralERC20Logic",
        "label": "_balances",
        "offset": 0,
        "slot": "101",
        "type": "t_mapping(t_address,t_uint256)"
      },
      {
        "astId": 195,
        "contract": "contracts/AstralABridge/AstralERC20Asset/AstralERC20.sol:AstralERC20Logic",
        "label": "_allowances",
        "offset": 0,
        "slot": "102",
        "type": "t_mapping(t_address,t_mapping(t_address,t_uint256))"
      },
      {
        "astId": 197,
        "contract": "contracts/AstralABridge/AstralERC20Asset/AstralERC20.sol:AstralERC20Logic",
        "label": "_totalSupply",
        "offset": 0,
        "slot": "103",
        "type": "t_uint256"
      },
      {
        "astId": 199,
        "contract": "contracts/AstralABridge/AstralERC20Asset/AstralERC20.sol:AstralERC20Logic",
        "label": "_name",
        "offset": 0,
        "slot": "104",
        "type": "t_string_storage"
      },
      {
        "astId": 201,
        "contract": "contracts/AstralABridge/AstralERC20Asset/AstralERC20.sol:AstralERC20Logic",
        "label": "_symbol",
        "offset": 0,
        "slot": "105",
        "type": "t_string_storage"
      },
      {
        "astId": 742,
        "contract": "contracts/AstralABridge/AstralERC20Asset/AstralERC20.sol:AstralERC20Logic",
        "label": "__gap",
        "offset": 0,
        "slot": "106",
        "type": "t_array(t_uint256)45_storage"
      },
      {
        "astId": 5224,
        "contract": "contracts/AstralABridge/AstralERC20Asset/AstralERC20.sol:AstralERC20Logic",
        "label": "setDecimals",
        "offset": 0,
        "slot": "151",
        "type": "t_uint8"
      },
      {
        "astId": 5229,
        "contract": "contracts/AstralABridge/AstralERC20Asset/AstralERC20.sol:AstralERC20Logic",
        "label": "_rate",
        "offset": 0,
        "slot": "152",
        "type": "t_uint256"
      },
      {
        "astId": 5231,
        "contract": "contracts/AstralABridge/AstralERC20Asset/AstralERC20.sol:AstralERC20Logic",
        "label": "chainId",
        "offset": 0,
        "slot": "153",
        "type": "t_uint256"
      },
      {
        "astId": 5233,
        "contract": "contracts/AstralABridge/AstralERC20Asset/AstralERC20.sol:AstralERC20Logic",
        "label": "parentAsset",
        "offset": 0,
        "slot": "154",
        "type": "t_address"
      },
      {
        "astId": 5236,
        "contract": "contracts/AstralABridge/AstralERC20Asset/AstralERC20.sol:AstralERC20Logic",
        "label": "tokenVault",
        "offset": 0,
        "slot": "155",
        "type": "t_contract(AstralAssetVault)5197"
      }
    ],
    "types": {
      "t_address": {
        "encoding": "inplace",
        "label": "address",
        "numberOfBytes": "20"
      },
      "t_array(t_uint256)45_storage": {
        "base": "t_uint256",
        "encoding": "inplace",
        "label": "uint256[45]",
        "numberOfBytes": "1440"
      },
      "t_array(t_uint256)49_storage": {
        "base": "t_uint256",
        "encoding": "inplace",
        "label": "uint256[49]",
        "numberOfBytes": "1568"
      },
      "t_array(t_uint256)50_storage": {
        "base": "t_uint256",
        "encoding": "inplace",
        "label": "uint256[50]",
        "numberOfBytes": "1600"
      },
      "t_bool": {
        "encoding": "inplace",
        "label": "bool",
        "numberOfBytes": "1"
      },
      "t_contract(AstralAssetVault)5197": {
        "encoding": "inplace",
        "label": "contract AstralAssetVault",
        "numberOfBytes": "20"
      },
      "t_mapping(t_address,t_mapping(t_address,t_uint256))": {
        "encoding": "mapping",
        "key": "t_address",
        "label": "mapping(address => mapping(address => uint256))",
        "numberOfBytes": "32",
        "value": "t_mapping(t_address,t_uint256)"
      },
      "t_mapping(t_address,t_uint256)": {
        "encoding": "mapping",
        "key": "t_address",
        "label": "mapping(address => uint256)",
        "numberOfBytes": "32",
        "value": "t_uint256"
      },
      "t_string_storage": {
        "encoding": "bytes",
        "label": "string",
        "numberOfBytes": "32"
      },
      "t_uint256": {
        "encoding": "inplace",
        "label": "uint256",
        "numberOfBytes": "32"
      },
      "t_uint8": {
        "encoding": "inplace",
        "label": "uint8",
        "numberOfBytes": "1"
      }
    }
  }
}