{
  "address": "0x959922bE3CAee4b8Cd9a407cc3ac1C251C2007B1",
  "abi": [
    {
      "anonymous": false,
      "inputs": [
        {
          "indexed": false,
          "internalType": "address",
          "name": "_for",
          "type": "address"
        },
        {
          "indexed": false,
          "internalType": "uint256",
          "name": "amount",
          "type": "uint256"
        },
        {
          "indexed": false,
          "internalType": "uint256",
          "name": "timestamp",
          "type": "uint256"
        },
        {
          "indexed": false,
          "internalType": "uint256",
          "name": "nonce",
          "type": "uint256"
        }
      ],
      "name": "AssetBurnt",
      "type": "event"
    },
    {
      "anonymous": false,
      "inputs": [
        {
          "indexed": false,
          "internalType": "address",
          "name": "_for",
          "type": "address"
        },
        {
          "indexed": false,
          "internalType": "uint256",
          "name": "amount",
          "type": "uint256"
        },
        {
          "indexed": false,
          "internalType": "uint256",
          "name": "timestamp",
          "type": "uint256"
        },
        {
          "indexed": false,
          "internalType": "uint256",
          "name": "nonce",
          "type": "uint256"
        }
      ],
      "name": "AssetLocked",
      "type": "event"
    },
    {
      "anonymous": false,
      "inputs": [
        {
          "indexed": false,
          "internalType": "address",
          "name": "from",
          "type": "address"
        },
        {
          "indexed": false,
          "internalType": "address",
          "name": "to",
          "type": "address"
        },
        {
          "indexed": false,
          "internalType": "uint256",
          "name": "amount",
          "type": "uint256"
        },
        {
          "indexed": false,
          "internalType": "uint256",
          "name": "date",
          "type": "uint256"
        },
        {
          "indexed": false,
          "internalType": "uint256",
          "name": "nonce",
          "type": "uint256"
        },
        {
          "indexed": true,
          "internalType": "enum BridgeBase.Step",
          "name": "step",
          "type": "uint8"
        }
      ],
      "name": "MintEvent",
      "type": "event"
    },
    {
      "anonymous": false,
      "inputs": [
        {
          "indexed": false,
          "internalType": "address",
          "name": "from",
          "type": "address"
        },
        {
          "indexed": false,
          "internalType": "address",
          "name": "to",
          "type": "address"
        },
        {
          "indexed": false,
          "internalType": "uint256",
          "name": "amount",
          "type": "uint256"
        },
        {
          "indexed": false,
          "internalType": "uint256",
          "name": "date",
          "type": "uint256"
        },
        {
          "indexed": false,
          "internalType": "uint256",
          "name": "nonce",
          "type": "uint256"
        },
        {
          "indexed": true,
          "internalType": "enum BridgeBase.Step",
          "name": "step",
          "type": "uint8"
        }
      ],
      "name": "ReleaseEvent",
      "type": "event"
    },
    {
      "inputs": [],
      "name": "admin",
      "outputs": [
        {
          "internalType": "address",
          "name": "",
          "type": "address"
        }
      ],
      "stateMutability": "view",
      "type": "function"
    },
    {
      "inputs": [
        {
          "internalType": "bytes32",
          "name": "_payloadHash",
          "type": "bytes32"
        },
        {
          "internalType": "bytes32",
          "name": "_nonceHash",
          "type": "bytes32"
        },
        {
          "internalType": "bytes",
          "name": "_sig",
          "type": "bytes"
        },
        {
          "internalType": "address",
          "name": "to",
          "type": "address"
        },
        {
          "internalType": "uint256",
          "name": "amount",
          "type": "uint256"
        },
        {
          "internalType": "uint256",
          "name": "otherChainNonce",
          "type": "uint256"
        },
        {
          "internalType": "string",
          "name": "bridgeAction",
          "type": "string"
        },
        {
          "internalType": "address",
          "name": "token",
          "type": "address"
        }
      ],
      "name": "bridge",
      "outputs": [],
      "stateMutability": "nonpayable",
      "type": "function"
    },
    {
      "inputs": [
        {
          "internalType": "address",
          "name": "to",
          "type": "address"
        },
        {
          "internalType": "uint256",
          "name": "_amount",
          "type": "uint256"
        }
      ],
      "name": "burn",
      "outputs": [],
      "stateMutability": "nonpayable",
      "type": "function"
    },
    {
      "inputs": [
        {
          "internalType": "uint256",
          "name": "_nonce",
          "type": "uint256"
        },
        {
          "internalType": "string",
          "name": "_type",
          "type": "string"
        }
      ],
      "name": "checkNonce",
      "outputs": [
        {
          "internalType": "bool",
          "name": "",
          "type": "bool"
        }
      ],
      "stateMutability": "view",
      "type": "function"
    },
    {
      "inputs": [
        {
          "internalType": "address",
          "name": "regsitryAddress",
          "type": "address"
        },
        {
          "internalType": "address",
          "name": "_releaseAsset",
          "type": "address"
        }
      ],
      "name": "doesReleaseAssetExist",
      "outputs": [
        {
          "internalType": "bool",
          "name": "",
          "type": "bool"
        }
      ],
      "stateMutability": "view",
      "type": "function"
    },
    {
      "inputs": [
        {
          "internalType": "address",
          "name": "user",
          "type": "address"
        }
      ],
      "name": "getBalance",
      "outputs": [
        {
          "internalType": "uint256",
          "name": "",
          "type": "uint256"
        }
      ],
      "stateMutability": "view",
      "type": "function"
    },
    {
      "inputs": [
        {
          "internalType": "bytes32",
          "name": "_pHash",
          "type": "bytes32"
        },
        {
          "internalType": "uint256",
          "name": "_amount",
          "type": "uint256"
        },
        {
          "internalType": "address",
          "name": "_to",
          "type": "address"
        },
        {
          "internalType": "bytes32",
          "name": "_nHash",
          "type": "bytes32"
        }
      ],
      "name": "hashForSignature",
      "outputs": [
        {
          "internalType": "bytes32",
          "name": "",
          "type": "bytes32"
        }
      ],
      "stateMutability": "view",
      "type": "function"
    },
    {
      "inputs": [
        {
          "internalType": "address",
          "name": "_admin",
          "type": "address"
        },
        {
          "internalType": "address",
          "name": "_token",
          "type": "address"
        }
      ],
      "name": "initialize",
      "outputs": [],
      "stateMutability": "nonpayable",
      "type": "function"
    },
    {
      "inputs": [
        {
          "internalType": "address",
          "name": "regsitryAddress",
          "type": "address"
        },
        {
          "internalType": "address",
          "name": "lockAsset",
          "type": "address"
        },
        {
          "internalType": "uint256",
          "name": "_amount",
          "type": "uint256"
        }
      ],
      "name": "lock",
      "outputs": [],
      "stateMutability": "nonpayable",
      "type": "function"
    },
    {
      "inputs": [
        {
          "internalType": "bytes32",
          "name": "_payloadHash",
          "type": "bytes32"
        },
        {
          "internalType": "bytes32",
          "name": "_nonceHash",
          "type": "bytes32"
        },
        {
          "internalType": "bytes",
          "name": "_sig",
          "type": "bytes"
        },
        {
          "internalType": "uint256",
          "name": "_amount",
          "type": "uint256"
        },
        {
          "internalType": "uint256",
          "name": "otherChainNonce",
          "type": "uint256"
        },
        {
          "internalType": "address",
          "name": "mintAddress",
          "type": "address"
        }
      ],
      "name": "mint",
      "outputs": [],
      "stateMutability": "nonpayable",
      "type": "function"
    },
    {
      "inputs": [
        {
          "internalType": "uint256",
          "name": "",
          "type": "uint256"
        }
      ],
      "name": "processedBurnNonces",
      "outputs": [
        {
          "internalType": "bool",
          "name": "",
          "type": "bool"
        }
      ],
      "stateMutability": "view",
      "type": "function"
    },
    {
      "inputs": [
        {
          "internalType": "uint256",
          "name": "",
          "type": "uint256"
        }
      ],
      "name": "processedLockNonces",
      "outputs": [
        {
          "internalType": "bool",
          "name": "",
          "type": "bool"
        }
      ],
      "stateMutability": "view",
      "type": "function"
    },
    {
      "inputs": [
        {
          "internalType": "bytes32",
          "name": "_payloadHash",
          "type": "bytes32"
        },
        {
          "internalType": "bytes32",
          "name": "_nonceHash",
          "type": "bytes32"
        },
        {
          "internalType": "bytes",
          "name": "_sig",
          "type": "bytes"
        },
        {
          "internalType": "uint256",
          "name": "_amount",
          "type": "uint256"
        },
        {
          "internalType": "address",
          "name": "releaseAsset",
          "type": "address"
        },
        {
          "internalType": "address",
          "name": "recipient",
          "type": "address"
        },
        {
          "internalType": "uint256",
          "name": "otherChainNonce",
          "type": "uint256"
        },
        {
          "internalType": "address",
          "name": "regsitryAddress",
          "type": "address"
        }
      ],
      "name": "release",
      "outputs": [],
      "stateMutability": "nonpayable",
      "type": "function"
    },
    {
      "inputs": [],
      "name": "token",
      "outputs": [
        {
          "internalType": "contract AstralERC20Logic",
          "name": "",
          "type": "address"
        }
      ],
      "stateMutability": "view",
      "type": "function"
    },
    {
      "inputs": [
        {
          "internalType": "bytes32",
          "name": "_sigHash",
          "type": "bytes32"
        },
        {
          "internalType": "bytes",
          "name": "_sig",
          "type": "bytes"
        }
      ],
      "name": "verifySignature",
      "outputs": [
        {
          "internalType": "bool",
          "name": "",
          "type": "bool"
        }
      ],
      "stateMutability": "view",
      "type": "function"
    }
  ],
  "transactionHash": "0x6a77004658ba8f7182eed6e75143b36ce17b3816cedb1bb9253829f35cb4f275",
  "args": [],
  "numDeployments": 2,
  "solcInputHash": "5f1d130635e0a02b36236c9ce411a072",
  "bytecode": "0x608060405234801561001057600080fd5b506120b6806100206000396000f3fe608060405234801561001057600080fd5b50600436106100f55760003560e01c8063985991d911610097578063daca6f7811610066578063daca6f7814610210578063f851a44014610223578063f8b2cb4f1461024e578063fc0c546a1461027757600080fd5b8063985991d9146101c45780639dc29fac146101d7578063b4d594fe146101ea578063cfcb1911146101fd57600080fd5b80635219a566116100d35780635219a5661461015a57806360ea7c8f1461017b5780637750c9f01461019e5780637b3def0e146101b157600080fd5b80631bec9fe9146100fa57806328ca8a3514610132578063485cc95514610147575b600080fd5b61011d610108366004611946565b60396020526000908152604090205460ff1681565b60405190151581526020015b60405180910390f35b610145610140366004611a2b565b61028a565b005b610145610155366004611ac9565b610757565b61016d610168366004611b02565b610811565b604051908152602001610129565b61011d610189366004611946565b603a6020526000908152604090205460ff1681565b6101456101ac366004611b41565b610861565b6101456101bf366004611b82565b610b5b565b61011d6101d2366004611ac9565b610e75565b6101456101e5366004611bf9565b610f44565b61011d6101f8366004611c25565b611289565b61014561020b366004611c6c565b611305565b61011d61021e366004611c25565b611490565b603354610236906001600160a01b031681565b6040516001600160a01b039091168152602001610129565b61016d61025c366004611d0f565b6001600160a01b03166000908152603b602052604090205490565b603454610236906001600160a01b031681565b60008281526039602052604090205460ff16156102ee5760405162461bcd60e51b815260206004820152601a60248201527f7472616e7366657220616c72656164792070726f63657373656400000000000060448201526064015b60405180910390fd5b600082815260396020526040808220805460ff19166001179055805163eeb5e80760e01b815290518392916001600160a01b0384169163eeb5e807916004808201928692909190829003018186803b15801561034957600080fd5b505afa15801561035d573d6000803e3d6000fd5b505050506040513d6000823e601f3d908101601f191682016040526103859190810190611d33565b905060008082518110156103cb57876001600160a01b03168382815181106103af576103af611de5565b60200260200101516001600160a01b031614156103cb57600191505b50806104145760405162461bcd60e51b81526020600482015260186024820152771b1bd8dac8185cdcd95d081b9bdd081cdd5c1c1bdc9d195960421b60448201526064016102e5565b60006104228c8a898e610811565b90506000603460009054906101000a90046001600160a01b03166001600160a01b031663bd6d894d6040518163ffffffff1660e01b815260040160206040518083038186803b15801561047457600080fd5b505afa158015610488573d6000803e3d6000fd5b505050506040513d601f19601f820116820180604052508101906104ac9190611e11565b905060006127106104bd838d611e2a565b6104c79190611e49565b90506104d3838d611490565b6104ef5760405162461bcd60e51b81526004016102e590611e6b565b6105486040518060400160405280601081526020016f03637b1b5903130b630b731b29034b9960851b815250603b60008c6001600160a01b03166001600160a01b0316815260200190815260200160002054838e6114ee565b8a6127106105568282611e2a565b6105609190611e49565b14801561058e57506001600160a01b0389166000908152603b602052604090205461058b828d611ebe565b11155b6105cb5760405162461bcd60e51b815260206004820152600e60248201526d616d6f756e7420746f6f206c6f7760901b60448201526064016102e5565b6001600160a01b038a1663a9059cbb8a6105e5848f611ebe565b6040516001600160e01b031960e085901b1681526001600160a01b0390921660048301526024820152604401602060405180830381600087803b15801561062b57600080fd5b505af115801561063f573d6000803e3d6000fd5b505050506040513d601f19601f820116820180604052508101906106639190611ed5565b5060335460405163a9059cbb60e01b81526001600160a01b03918216600482015260248101839052908b169063a9059cbb90604401602060405180830381600087803b1580156106b257600080fd5b505af11580156106c6573d6000803e3d6000fd5b505050506040513d601f19601f820116820180604052508101906106ea9190611ed5565b506000603854604080516001600160a01b038d1681523060208201529081018e905242606082015260808101919091527fd14908469d4aae8b528b86622f3f09f1ba2e3e63ca7c5265eefa2721b9dbd3179060a00160405180910390a25050505050505050505050505050565b600054610100900460ff1680610770575060005460ff16155b61078c5760405162461bcd60e51b81526004016102e590611f0d565b600054610100900460ff161580156107ae576000805461ffff19166101011790555b6107b661153d565b603380546001600160a01b038086166001600160a01b03199283161790925560348054928516929091169190911790556000603581905560368190556037819055603855801561080c576000805461ff00191690555b505050565b60345460408051602080820197909752808201959095526001600160a01b0391821660608601529216608084015260a0808401919091528151808403909101815260c09092019052805191012090565b60008390506000816001600160a01b031663eeb5e8076040518163ffffffff1660e01b815260040160006040518083038186803b1580156108a157600080fd5b505afa1580156108b5573d6000803e3d6000fd5b505050506040513d6000823e601f3d908101601f191682016040526108dd9190810190611d33565b9050600080825181101561092357856001600160a01b031683828151811061090757610907611de5565b60200260200101516001600160a01b0316141561092357600191505b508061096c5760405162461bcd60e51b81526020600482015260186024820152771b1bd8dac8185cdcd95d081b9bdd081cdd5c1c1bdc9d195960421b60448201526064016102e5565b6000841161098c5760405162461bcd60e51b81526004016102e590611f5b565b6034546040805163bd6d894d60e01b815290516000926001600160a01b03169163bd6d894d916004808301926020929190829003018186803b1580156109d157600080fd5b505afa1580156109e5573d6000803e3d6000fd5b505050506040513d601f19601f82011682018060405250810190610a099190611e11565b90506001600160a01b0386166323b872dd3330610a26858a611ebe565b6040516001600160e01b031960e086901b1681526001600160a01b0393841660048201529290911660248301526044820152606401602060405180830381600087803b158015610a7557600080fd5b505af1158015610a89573d6000803e3d6000fd5b505050506040513d601f19601f82011682018060405250810190610aad9190611ed5565b50610ab88186611ebe565b336000908152603b602052604081208054909190610ad7908490611fa0565b909155507f688b1b892b6c2a3e9f9071b9a81a931c0a9d747bc68ffaab11d8db4232dbe4ae905033610b098388611ebe565b603754604080516001600160a01b03949094168452602084019290925242838301526060830152519081900360800190a1600160376000828254610b4d9190611fa0565b909155505050505050505050565b6000828152603a602052604090205460ff1615610bba5760405162461bcd60e51b815260206004820152601a60248201527f7472616e7366657220616c72656164792070726f63657373656400000000000060448201526064016102e5565b6000828152603a60205260408120805460ff19166001179055610bdf87858489610811565b90506000603460009054906101000a90046001600160a01b03166001600160a01b031663bd6d894d6040518163ffffffff1660e01b815260040160206040518083038186803b158015610c3157600080fd5b505afa158015610c45573d6000803e3d6000fd5b505050506040513d601f19601f82011682018060405250810190610c699190611e11565b9050610c758287611490565b610c915760405162461bcd60e51b81526004016102e590611e6b565b84612710610c9f8282611e2a565b610ca99190611e49565b14610ce75760405162461bcd60e51b815260206004820152600e60248201526d616d6f756e7420746f6f206c6f7760901b60448201526064016102e5565b6000612710610cf68388611e2a565b610d009190611e49565b9050610d336040518060400160405280600f81526020016e746f6b656e2066656565656565656560881b815250826115b1565b6034546001600160a01b03166340c10f1985610d4f848a611ebe565b6040516001600160e01b031960e085901b1681526001600160a01b0390921660048301526024820152604401600060405180830381600087803b158015610d9557600080fd5b505af1158015610da9573d6000803e3d6000fd5b50506034546033546040516340c10f1960e01b81526001600160a01b03918216600482015260248101869052911692506340c10f199150604401600060405180830381600087803b158015610dfd57600080fd5b505af1158015610e11573d6000803e3d6000fd5b5060019250610e1e915050565b604080513081523360208201528082018990524260608201526080810188905290517fb1bae0257d9e099473a6a55d792efb9db76a35d24e0298964f1b1c57f993675a9181900360a00190a2505050505050505050565b6000808390506000816001600160a01b031663eeb5e8076040518163ffffffff1660e01b815260040160006040518083038186803b158015610eb657600080fd5b505afa158015610eca573d6000803e3d6000fd5b505050506040513d6000823e601f3d908101601f19168201604052610ef29190810190611d33565b90506000808251811015610f3857856001600160a01b0316838281518110610f1c57610f1c611de5565b60200260200101516001600160a01b03161415610f3857600191505b50925050505b92915050565b6001600160a01b038216610f915760405162461bcd60e51b8152602060048201526014602482015273696e76616c6964206275726e206164647265737360601b60448201526064016102e5565b60345481906001600160a01b03166370a08231336040516001600160e01b031960e084901b1681526001600160a01b03909116600482015260240160206040518083038186803b158015610fe457600080fd5b505afa158015610ff8573d6000803e3d6000fd5b505050506040513d601f19601f8201168201806040525081019061101c9190611e11565b10156110605760405162461bcd60e51b8152602060048201526013602482015272696e737566666963656e742062616c616e636560681b60448201526064016102e5565b6034546040805163bd6d894d60e01b815290516000926001600160a01b03169163bd6d894d916004808301926020929190829003018186803b1580156110a557600080fd5b505afa1580156110b9573d6000803e3d6000fd5b505050506040513d601f19601f820116820180604052508101906110dd9190611e11565b905060006110eb8284611ebe565b9050826127106110fb8282611e2a565b6111059190611e49565b1480156111125750600083115b61112e5760405162461bcd60e51b81526004016102e590611f5b565b6034546001600160a01b0316639dc29fac336040516001600160e01b031960e084901b1681526001600160a01b03909116600482015260248101869052604401600060405180830381600087803b15801561118857600080fd5b505af115801561119c573d6000803e3d6000fd5b50506034546033546040516340c10f1960e01b81526001600160a01b03918216600482015260248101879052911692506340c10f199150604401600060405180830381600087803b1580156111f057600080fd5b505af1158015611204573d6000803e3d6000fd5b505050507fb0bc86c9bf8075ca6db4d74020f3819ec32d244cfb0245e1f7ad5a794163677b6112303390565b61123a8486611ebe565b603854604080516001600160a01b03949094168452602084019290925242838301526060830152519081900360800190a160016038600082825461127e9190611fa0565b909155505050505050565b604080518082019091526004815263213ab93760e11b6020918201528151908201206000907f3e43e1de00e8a6bc1dfa3e950e6ade24c52e4a25de4dee7fb5affe918ad1e74414156112ed575060008281526039602052604090205460ff16610f3e565b506000828152603a602052604090205460ff16610f3e565b81516020808401919091206040805180820182526004808252631352539560e21b918501919091528151808301835281815263212aa92760e11b9085015281518083018352908152634c4f434b60e01b9084015280518082018252600781526652454c4541534560c81b90840152805180820190915230808252339382019390935290917ffdf81848136595c31bb5f76217767372bc4bf906663038eb38381131ea27ecba917f04c6a47ae7910ef8b295215a97e8495a9eaf57b7b05bfd8bf951edb3fd4a16a3917ffc530b24510b924664e4cc98bd27ba37fd804f8cb2b1743b1bc15525a944ae93917f4650e4c308846ad3a0c95f18e7dec27b598429f6f567e1373fc9fa8e9c73329a916000919082906001600160a01b038a16141561142c57600192505b5081801561143957508387145b156114435761147f565b81801561144f57508287145b156114595761147f565b8115801561146657508587145b156114705761147f565b8115801561147d57508487145b505b505050505050505050505050505050565b60408051808201909152600d81526c61646d696e206164647265737360981b60208201526033546000916114cc916001600160a01b03166115fa565b6114d6838361163f565b6033546001600160a01b039182169116149392505050565b611537848484846040516024016115089493929190612005565b60408051601f198184030181529190526020810180516001600160e01b031663a7a8785360e01b179052611663565b50505050565b600054610100900460ff1680611556575060005460ff16155b6115725760405162461bcd60e51b81526004016102e590611f0d565b600054610100900460ff16158015611594576000805461ffff19166101011790555b61159c611684565b80156115ae576000805461ff00191690555b50565b6115f682826040516024016115c7929190612034565b60408051601f198184030181529190526020810180516001600160e01b0316632d839cb360e21b179052611663565b5050565b6115f68282604051602401611610929190612056565b60408051601f198184030181529190526020810180516001600160e01b031663319af33360e01b179052611663565b600080600061164e85856116ee565b9150915061165b81611734565b509392505050565b80516a636f6e736f6c652e6c6f67602083016000808483855afa5050505050565b600054610100900460ff168061169d575060005460ff16155b6116b95760405162461bcd60e51b81526004016102e590611f0d565b600054610100900460ff1615801561159c576000805461ffff191661010117905580156115ae576000805461ff001916905550565b6000808251604114156117255760208301516040840151606085015160001a61171987828585611882565b9450945050505061172d565b506000905060025b9250929050565b600081600481111561174857611748611ef7565b14156117515750565b600181600481111561176557611765611ef7565b14156117b35760405162461bcd60e51b815260206004820152601860248201527f45434453413a20696e76616c6964207369676e6174757265000000000000000060448201526064016102e5565b60028160048111156117c7576117c7611ef7565b14156118155760405162461bcd60e51b815260206004820152601f60248201527f45434453413a20696e76616c6964207369676e6174757265206c656e6774680060448201526064016102e5565b600381600481111561182957611829611ef7565b14156115ae5760405162461bcd60e51b815260206004820152602260248201527f45434453413a20696e76616c6964207369676e6174757265202773272076616c604482015261756560f01b60648201526084016102e5565b6000807f7fffffffffffffffffffffffffffffff5d576e7357a4501ddfe92f46681b20a08311156118b9575060009050600361193d565b6040805160008082526020820180845289905260ff881692820192909252606081018690526080810185905260019060a0016020604051602081039080840390855afa15801561190d573d6000803e3d6000fd5b5050604051601f1901519150506001600160a01b0381166119365760006001925092505061193d565b9150600090505b94509492505050565b60006020828403121561195857600080fd5b5035919050565b634e487b7160e01b600052604160045260246000fd5b604051601f8201601f1916810167ffffffffffffffff8111828210171561199e5761199e61195f565b604052919050565b600082601f8301126119b757600080fd5b813567ffffffffffffffff8111156119d1576119d161195f565b6119e4601f8201601f1916602001611975565b8181528460208386010111156119f957600080fd5b816020850160208301376000918101602001919091529392505050565b6001600160a01b03811681146115ae57600080fd5b600080600080600080600080610100898b031215611a4857600080fd5b8835975060208901359650604089013567ffffffffffffffff811115611a6d57600080fd5b611a798b828c016119a6565b965050606089013594506080890135611a9181611a16565b935060a0890135611aa181611a16565b925060c0890135915060e0890135611ab881611a16565b809150509295985092959890939650565b60008060408385031215611adc57600080fd5b8235611ae781611a16565b91506020830135611af781611a16565b809150509250929050565b60008060008060808587031215611b1857600080fd5b84359350602085013592506040850135611b3181611a16565b9396929550929360600135925050565b600080600060608486031215611b5657600080fd5b8335611b6181611a16565b92506020840135611b7181611a16565b929592945050506040919091013590565b60008060008060008060c08789031215611b9b57600080fd5b8635955060208701359450604087013567ffffffffffffffff811115611bc057600080fd5b611bcc89828a016119a6565b945050606087013592506080870135915060a0870135611beb81611a16565b809150509295509295509295565b60008060408385031215611c0c57600080fd5b8235611c1781611a16565b946020939093013593505050565b60008060408385031215611c3857600080fd5b82359150602083013567ffffffffffffffff811115611c5657600080fd5b611c62858286016119a6565b9150509250929050565b600080600080600080600080610100898b031215611c8957600080fd5b8835975060208901359650604089013567ffffffffffffffff80821115611caf57600080fd5b611cbb8c838d016119a6565b975060608b01359150611ccd82611a16565b90955060808a0135945060a08a0135935060c08a01359080821115611cf157600080fd5b50611cfe8b828c016119a6565b92505060e0890135611ab881611a16565b600060208284031215611d2157600080fd5b8135611d2c81611a16565b9392505050565b60006020808385031215611d4657600080fd5b825167ffffffffffffffff80821115611d5e57600080fd5b818501915085601f830112611d7257600080fd5b815181811115611d8457611d8461195f565b8060051b9150611d95848301611975565b8181529183018401918481019088841115611daf57600080fd5b938501935b83851015611dd95784519250611dc983611a16565b8282529385019390850190611db4565b98975050505050505050565b634e487b7160e01b600052603260045260246000fd5b634e487b7160e01b600052601160045260246000fd5b600060208284031215611e2357600080fd5b5051919050565b6000816000190483118215151615611e4457611e44611dfb565b500290565b600082611e6657634e487b7160e01b600052601260045260246000fd5b500490565b60208082526033908201527f756e617574686f72697a6564206d696e743a207369676e617475726520646f656040820152721cc81b9bdd081b585d18da081c995c5d595cdd606a1b606082015260800190565b600082821015611ed057611ed0611dfb565b500390565b600060208284031215611ee757600080fd5b81518015158114611d2c57600080fd5b634e487b7160e01b600052602160045260246000fd5b6020808252602e908201527f496e697469616c697a61626c653a20636f6e747261637420697320616c72656160408201526d191e481a5b9a5d1a585b1a5e995960921b606082015260800190565b60208082526025908201527f6c6f636b20616d6f756e74206d7573742062652067726561746572207468616e604082015264207a65726f60d81b606082015260800190565b60008219821115611fb357611fb3611dfb565b500190565b6000815180845260005b81811015611fde57602081850181015186830182015201611fc2565b81811115611ff0576000602083870101525b50601f01601f19169290920160200192915050565b6080815260006120186080830187611fb8565b6020830195909552506040810192909252606090910152919050565b6040815260006120476040830185611fb8565b90508260208301529392505050565b6040815260006120696040830185611fb8565b905060018060a01b0383166020830152939250505056fea2646970667358221220481772a76c5d20d944518f928a9449cca5a84420ddfc00b5625a115a35d91bce64736f6c63430008090033",
  "devdoc": {
    "kind": "dev",
    "methods": {},
    "version": 1
  },
  "userdoc": {
    "kind": "user",
    "methods": {},
    "version": 1
  },
  "storageLayout": {
    "storage": [
      {
        "astId": 130,
        "contract": "contracts/AstralABridge/BridgeBaseAdapter.sol:BridgeBase",
        "label": "_initialized",
        "offset": 0,
        "slot": "0",
        "type": "t_bool"
      },
      {
        "astId": 133,
        "contract": "contracts/AstralABridge/BridgeBaseAdapter.sol:BridgeBase",
        "label": "_initializing",
        "offset": 1,
        "slot": "0",
        "type": "t_bool"
      },
      {
        "astId": 889,
        "contract": "contracts/AstralABridge/BridgeBaseAdapter.sol:BridgeBase",
        "label": "__gap",
        "offset": 0,
        "slot": "1",
        "type": "t_array(t_uint256)50_storage"
      },
      {
        "astId": 5635,
        "contract": "contracts/AstralABridge/BridgeBaseAdapter.sol:BridgeBase",
        "label": "admin",
        "offset": 0,
        "slot": "51",
        "type": "t_address"
      },
      {
        "astId": 5638,
        "contract": "contracts/AstralABridge/BridgeBaseAdapter.sol:BridgeBase",
        "label": "token",
        "offset": 0,
        "slot": "52",
        "type": "t_contract(AstralERC20Logic)5508"
      },
      {
        "astId": 5640,
        "contract": "contracts/AstralABridge/BridgeBaseAdapter.sol:BridgeBase",
        "label": "mintFee",
        "offset": 0,
        "slot": "53",
        "type": "t_uint256"
      },
      {
        "astId": 5642,
        "contract": "contracts/AstralABridge/BridgeBaseAdapter.sol:BridgeBase",
        "label": "burnFee",
        "offset": 0,
        "slot": "54",
        "type": "t_uint256"
      },
      {
        "astId": 5644,
        "contract": "contracts/AstralABridge/BridgeBaseAdapter.sol:BridgeBase",
        "label": "lockMintNonce",
        "offset": 0,
        "slot": "55",
        "type": "t_uint256"
      },
      {
        "astId": 5646,
        "contract": "contracts/AstralABridge/BridgeBaseAdapter.sol:BridgeBase",
        "label": "burnReleaseNonce",
        "offset": 0,
        "slot": "56",
        "type": "t_uint256"
      },
      {
        "astId": 5650,
        "contract": "contracts/AstralABridge/BridgeBaseAdapter.sol:BridgeBase",
        "label": "processedBurnNonces",
        "offset": 0,
        "slot": "57",
        "type": "t_mapping(t_uint256,t_bool)"
      },
      {
        "astId": 5654,
        "contract": "contracts/AstralABridge/BridgeBaseAdapter.sol:BridgeBase",
        "label": "processedLockNonces",
        "offset": 0,
        "slot": "58",
        "type": "t_mapping(t_uint256,t_bool)"
      },
      {
        "astId": 5658,
        "contract": "contracts/AstralABridge/BridgeBaseAdapter.sol:BridgeBase",
        "label": "lockBalance",
        "offset": 0,
        "slot": "59",
        "type": "t_mapping(t_address,t_uint256)"
      }
    ],
    "types": {
      "t_address": {
        "encoding": "inplace",
        "label": "address",
        "numberOfBytes": "20"
      },
      "t_array(t_uint256)50_storage": {
        "base": "t_uint256",
        "encoding": "inplace",
        "label": "uint256[50]",
        "numberOfBytes": "1600"
      },
      "t_bool": {
        "encoding": "inplace",
        "label": "bool",
        "numberOfBytes": "1"
      },
      "t_contract(AstralERC20Logic)5508": {
        "encoding": "inplace",
        "label": "contract AstralERC20Logic",
        "numberOfBytes": "20"
      },
      "t_mapping(t_address,t_uint256)": {
        "encoding": "mapping",
        "key": "t_address",
        "label": "mapping(address => uint256)",
        "numberOfBytes": "32",
        "value": "t_uint256"
      },
      "t_mapping(t_uint256,t_bool)": {
        "encoding": "mapping",
        "key": "t_uint256",
        "label": "mapping(uint256 => bool)",
        "numberOfBytes": "32",
        "value": "t_bool"
      },
      "t_uint256": {
        "encoding": "inplace",
        "label": "uint256",
        "numberOfBytes": "32"
      }
    }
  }
}